{
  "contractName": "Registry",
  "abi": [
    {
      "inputs": [],
      "stateMutability": "nonpayable",
      "type": "constructor"
    },
    {
      "inputs": [
        {
          "internalType": "address",
          "name": "",
          "type": "address"
        }
      ],
      "name": "admins",
      "outputs": [
        {
          "internalType": "address",
          "name": "adminAddress",
          "type": "address"
        },
        {
          "internalType": "string",
          "name": "city",
          "type": "string"
        },
        {
          "internalType": "string",
          "name": "district",
          "type": "string"
        },
        {
          "internalType": "string",
          "name": "state",
          "type": "string"
        }
      ],
      "stateMutability": "view",
      "type": "function",
      "constant": true
    },
    {
      "inputs": [
        {
          "internalType": "string",
          "name": "",
          "type": "string"
        },
        {
          "internalType": "string",
          "name": "",
          "type": "string"
        },
        {
          "internalType": "string",
          "name": "",
          "type": "string"
        },
        {
          "internalType": "uint256",
          "name": "",
          "type": "uint256"
        }
      ],
      "name": "landDetalsMap",
      "outputs": [
        {
          "internalType": "address",
          "name": "owner",
          "type": "address"
        },
        {
          "internalType": "address",
          "name": "admin",
          "type": "address"
        },
        {
          "internalType": "uint256",
          "name": "propertyId",
          "type": "uint256"
        },
        {
          "internalType": "uint256",
          "name": "surveyNumber",
          "type": "uint256"
        },
        {
          "internalType": "uint256",
          "name": "index",
          "type": "uint256"
        },
        {
          "internalType": "bool",
          "name": "registered",
          "type": "bool"
        },
        {
          "internalType": "uint256",
          "name": "marketValue",
          "type": "uint256"
        },
        {
          "internalType": "bool",
          "name": "markAvailable",
          "type": "bool"
        },
        {
          "internalType": "uint256",
          "name": "noOfRequests",
          "type": "uint256"
        },
        {
          "internalType": "uint256",
          "name": "sqft",
          "type": "uint256"
        }
      ],
      "stateMutability": "view",
      "type": "function",
      "constant": true
    },
    {
      "inputs": [
        {
          "internalType": "address",
          "name": "",
          "type": "address"
        },
        {
          "internalType": "uint256",
          "name": "",
          "type": "uint256"
        }
      ],
      "name": "ownerMapsProperty",
      "outputs": [
        {
          "internalType": "uint256",
          "name": "surveyNumber",
          "type": "uint256"
        },
        {
          "internalType": "string",
          "name": "state",
          "type": "string"
        },
        {
          "internalType": "string",
          "name": "district",
          "type": "string"
        },
        {
          "internalType": "string",
          "name": "city",
          "type": "string"
        }
      ],
      "stateMutability": "view",
      "type": "function",
      "constant": true
    },
    {
      "inputs": [
        {
          "internalType": "address",
          "name": "",
          "type": "address"
        },
        {
          "internalType": "uint256",
          "name": "",
          "type": "uint256"
        }
      ],
      "name": "requestedLands",
      "outputs": [
        {
          "internalType": "uint256",
          "name": "surveyNumber",
          "type": "uint256"
        },
        {
          "internalType": "string",
          "name": "state",
          "type": "string"
        },
        {
          "internalType": "string",
          "name": "district",
          "type": "string"
        },
        {
          "internalType": "string",
          "name": "city",
          "type": "string"
        }
      ],
      "stateMutability": "view",
      "type": "function",
      "constant": true
    },
    {
      "inputs": [],
      "name": "superAdmin",
      "outputs": [
        {
          "internalType": "address",
          "name": "",
          "type": "address"
        }
      ],
      "stateMutability": "view",
      "type": "function",
      "constant": true
    },
    {
      "inputs": [],
      "name": "totalAdmins",
      "outputs": [
        {
          "internalType": "uint256",
          "name": "",
          "type": "uint256"
        }
      ],
      "stateMutability": "view",
      "type": "function",
      "constant": true
    },
    {
      "inputs": [
        {
          "internalType": "address",
          "name": "",
          "type": "address"
        }
      ],
      "name": "userProfile",
      "outputs": [
        {
          "internalType": "address",
          "name": "userAddr",
          "type": "address"
        },
        {
          "internalType": "string",
          "name": "fullName",
          "type": "string"
        },
        {
          "internalType": "string",
          "name": "gender",
          "type": "string"
        },
        {
          "internalType": "string",
          "name": "email",
          "type": "string"
        },
        {
          "internalType": "uint256",
          "name": "contact",
          "type": "uint256"
        },
        {
          "internalType": "string",
          "name": "residentialAddr",
          "type": "string"
        },
        {
          "internalType": "uint256",
          "name": "totalIndices",
          "type": "uint256"
        },
        {
          "internalType": "uint256",
          "name": "requestIndices",
          "type": "uint256"
        }
      ],
      "stateMutability": "view",
      "type": "function",
      "constant": true
    },
    {
      "inputs": [
        {
          "internalType": "address",
          "name": "_adminAddr",
          "type": "address"
        },
        {
          "internalType": "string",
          "name": "_state",
          "type": "string"
        },
        {
          "internalType": "string",
          "name": "_district",
          "type": "string"
        },
        {
          "internalType": "string",
          "name": "_city",
          "type": "string"
        }
      ],
      "name": "addAdmin",
      "outputs": [],
      "stateMutability": "nonpayable",
      "type": "function"
    },
    {
      "inputs": [],
      "name": "isAdmin",
      "outputs": [
        {
          "internalType": "bool",
          "name": "",
          "type": "bool"
        }
      ],
      "stateMutability": "view",
      "type": "function",
      "constant": true
    },
    {
      "inputs": [
        {
          "internalType": "string",
          "name": "_state",
          "type": "string"
        },
        {
          "internalType": "string",
          "name": "_district",
          "type": "string"
        },
        {
          "internalType": "string",
          "name": "_city",
          "type": "string"
        },
        {
          "internalType": "uint256",
          "name": "_propertyId",
          "type": "uint256"
        },
        {
          "internalType": "uint256",
          "name": "_surveyNo",
          "type": "uint256"
        },
        {
          "internalType": "address",
          "name": "_owner",
          "type": "address"
        },
        {
          "internalType": "uint256",
          "name": "_marketValue",
          "type": "uint256"
        },
        {
          "internalType": "uint256",
          "name": "_sqft",
          "type": "uint256"
        }
      ],
      "name": "registerLand",
      "outputs": [],
      "stateMutability": "nonpayable",
      "type": "function"
    },
    {
      "inputs": [
        {
          "internalType": "string",
          "name": "_fullName",
          "type": "string"
        },
        {
          "internalType": "string",
          "name": "_gender",
          "type": "string"
        },
        {
          "internalType": "string",
          "name": "_email",
          "type": "string"
        },
        {
          "internalType": "uint256",
          "name": "_contact",
          "type": "uint256"
        },
        {
          "internalType": "string",
          "name": "_residentialAddr",
          "type": "string"
        }
      ],
      "name": "setUserProfile",
      "outputs": [],
      "stateMutability": "nonpayable",
      "type": "function"
    },
    {
      "inputs": [
        {
          "internalType": "uint256",
          "name": "indexNo",
          "type": "uint256"
        }
      ],
      "name": "markMyPropertyAvailable",
      "outputs": [],
      "stateMutability": "nonpayable",
      "type": "function"
    },
    {
      "inputs": [
        {
          "internalType": "string",
          "name": "_state",
          "type": "string"
        },
        {
          "internalType": "string",
          "name": "_district",
          "type": "string"
        },
        {
          "internalType": "string",
          "name": "_city",
          "type": "string"
        },
        {
          "internalType": "uint256",
          "name": "_surveyNo",
          "type": "uint256"
        }
      ],
      "name": "RequestForBuy",
      "outputs": [],
      "stateMutability": "nonpayable",
      "type": "function"
    },
    {
      "inputs": [
        {
          "internalType": "uint256",
          "name": "_index",
          "type": "uint256"
        },
        {
          "internalType": "uint256",
          "name": "_reqNo",
          "type": "uint256"
        }
      ],
      "name": "AcceptRequest",
      "outputs": [],
      "stateMutability": "nonpayable",
      "type": "function"
    },
    {
      "inputs": [
        {
          "internalType": "string",
          "name": "_state",
          "type": "string"
        },
        {
          "internalType": "string",
          "name": "_district",
          "type": "string"
        },
        {
          "internalType": "string",
          "name": "_city",
          "type": "string"
        },
        {
          "internalType": "uint256",
          "name": "_surveyNo",
          "type": "uint256"
        }
      ],
      "name": "getLandDetails",
      "outputs": [
        {
          "internalType": "address",
          "name": "",
          "type": "address"
        },
        {
          "internalType": "uint256",
          "name": "",
          "type": "uint256"
        },
        {
          "internalType": "uint256",
          "name": "",
          "type": "uint256"
        },
        {
          "internalType": "uint256",
          "name": "",
          "type": "uint256"
        },
        {
          "internalType": "uint256",
          "name": "",
          "type": "uint256"
        }
      ],
      "stateMutability": "view",
      "type": "function",
      "constant": true
    },
    {
      "inputs": [
        {
          "internalType": "string",
          "name": "_state",
          "type": "string"
        },
        {
          "internalType": "string",
          "name": "_district",
          "type": "string"
        },
        {
          "internalType": "string",
          "name": "_city",
          "type": "string"
        },
        {
          "internalType": "uint256",
          "name": "_surveyNo",
          "type": "uint256"
        }
      ],
      "name": "getRequestCnt_propId",
      "outputs": [
        {
          "internalType": "uint256",
          "name": "",
          "type": "uint256"
        },
        {
          "internalType": "uint256",
          "name": "",
          "type": "uint256"
        }
      ],
      "stateMutability": "view",
      "type": "function",
      "constant": true
    },
    {
      "inputs": [
        {
          "internalType": "string",
          "name": "_state",
          "type": "string"
        },
        {
          "internalType": "string",
          "name": "_district",
          "type": "string"
        },
        {
          "internalType": "string",
          "name": "_city",
          "type": "string"
        },
        {
          "internalType": "uint256",
          "name": "_surveyNo",
          "type": "uint256"
        },
        {
          "internalType": "uint256",
          "name": "_reqIndex",
          "type": "uint256"
        }
      ],
      "name": "getRequesterDetail",
      "outputs": [
        {
          "internalType": "address",
          "name": "",
          "type": "address"
        }
      ],
      "stateMutability": "view",
      "type": "function",
      "constant": true
    },
    {
      "inputs": [
        {
          "internalType": "string",
          "name": "_state",
          "type": "string"
        },
        {
          "internalType": "string",
          "name": "_district",
          "type": "string"
        },
        {
          "internalType": "string",
          "name": "_city",
          "type": "string"
        },
        {
          "internalType": "uint256",
          "name": "_surveyNo",
          "type": "uint256"
        }
      ],
      "name": "isAvailable",
      "outputs": [
        {
          "internalType": "bool",
          "name": "",
          "type": "bool"
        }
      ],
      "stateMutability": "view",
      "type": "function",
      "constant": true
    },
    {
      "inputs": [
        {
          "internalType": "uint256",
          "name": "indx",
          "type": "uint256"
        }
      ],
      "name": "getOwnerOwns",
      "outputs": [
        {
          "internalType": "string",
          "name": "",
          "type": "string"
        },
        {
          "internalType": "string",
          "name": "",
          "type": "string"
        },
        {
          "internalType": "string",
          "name": "",
          "type": "string"
        },
        {
          "internalType": "uint256",
          "name": "",
          "type": "uint256"
        }
      ],
      "stateMutability": "view",
      "type": "function",
      "constant": true
    },
    {
      "inputs": [
        {
          "internalType": "uint256",
          "name": "indx",
          "type": "uint256"
        }
      ],
      "name": "getRequestedLands",
      "outputs": [
        {
          "internalType": "string",
          "name": "",
          "type": "string"
        },
        {
          "internalType": "string",
          "name": "",
          "type": "string"
        },
        {
          "internalType": "string",
          "name": "",
          "type": "string"
        },
        {
          "internalType": "uint256",
          "name": "",
          "type": "uint256"
        }
      ],
      "stateMutability": "view",
      "type": "function",
      "constant": true
    },
    {
      "inputs": [],
      "name": "getUserProfile",
      "outputs": [
        {
          "internalType": "string",
          "name": "",
          "type": "string"
        },
        {
          "internalType": "string",
          "name": "",
          "type": "string"
        },
        {
          "internalType": "string",
          "name": "",
          "type": "string"
        },
        {
          "internalType": "uint256",
          "name": "",
          "type": "uint256"
        },
        {
          "internalType": "string",
          "name": "",
          "type": "string"
        }
      ],
      "stateMutability": "view",
      "type": "function",
      "constant": true
    },
    {
      "inputs": [],
      "name": "getIndices",
      "outputs": [
        {
          "internalType": "uint256",
          "name": "",
          "type": "uint256"
        },
        {
          "internalType": "uint256",
          "name": "",
          "type": "uint256"
        }
      ],
      "stateMutability": "view",
      "type": "function",
      "constant": true
    },
    {
      "inputs": [
        {
          "internalType": "string",
          "name": "_state",
          "type": "string"
        },
        {
          "internalType": "string",
          "name": "_district",
          "type": "string"
        },
        {
          "internalType": "string",
          "name": "_city",
          "type": "string"
        },
        {
          "internalType": "uint256",
          "name": "_surveyNo",
          "type": "uint256"
        }
      ],
      "name": "didIRequested",
      "outputs": [
        {
          "internalType": "bool",
          "name": "",
          "type": "bool"
        }
      ],
      "stateMutability": "view",
      "type": "function",
      "constant": true
    }
  ],
  "bytecode": "0x608060405234801561001057600080fd5b50336000806101000a81548173ffffffffffffffffffffffffffffffffffffffff021916908373ffffffffffffffffffffffffffffffffffffffff160217905550614a58806100606000396000f3fe608060405234801561001057600080fd5b506004361061014d5760003560e01c80636d1b9a8e116100c3578063d06efd671161007c578063d06efd67146103f7578063d1dbeff214610428578063d41cc5c81461045b578063e331ad7c14610477578063eaec23fa146104ab578063eb68048b146104db5761014d565b80636d1b9a8e1461031c5780636f61c7441461034f5780638a80e4e414610371578063992369da1461038d578063b6db75a0146103bd578063bfde241c146103db5761014d565b80632a52ee86116101155780632a52ee861461022f5780632ca305f31461024b5780633bbd43b31461027e578063429b62e5146102ae57806344e05734146102e15780635863056d146102fd5761014d565b806303825d6c146101525780630e2279af1461016e5780631555ff1e146101a15780631c8e8962146101da57806329575f6a14610211575b600080fd5b61016c60048036038101906101679190613c0c565b6104f9565b005b61018860048036038101906101839190613cfd565b6105e9565b6040516101989493929190613dd4565b60405180910390f35b6101bb60048036038101906101b69190613e2e565b6107be565b6040516101d19a99989796959493929190613f13565b60405180910390f35b6101f460048036038101906101ef9190613faf565b6108d5565b604051610208989796959493929190613fdc565b60405180910390f35b610219610b5d565b6040516102269190614076565b60405180910390f35b61024960048036038101906102449190614091565b610b81565b005b6102656004803603810190610260919061419b565b6111f6565b60405161027594939291906141c8565b60405180910390f35b61029860048036038101906102939190614222565b61150b565b6040516102a59190614076565b60405180910390f35b6102c860048036038101906102c39190613faf565b6115bc565b6040516102d894939291906142f1565b60405180910390f35b6102fb60048036038101906102f6919061419b565b6117a4565b005b610305611be4565b60405161031392919061434b565b60405180910390f35b6103366004803603810190610331919061419b565b611c81565b60405161034694939291906141c8565b60405180910390f35b610357611f96565b604051610368959493929190614374565b60405180910390f35b61038b60048036038101906103869190613e2e565b61233d565b005b6103a760048036038101906103a29190613e2e565b612624565b6040516103b491906143e3565b60405180910390f35b6103c56126ad565b6040516103d291906143e3565b60405180910390f35b6103f560048036038101906103f091906143fe565b612756565b005b610411600480360381019061040c9190613e2e565b61280e565b60405161041f92919061434b565b60405180910390f35b610442600480360381019061043d9190613cfd565b612900565b6040516104529493929190613dd4565b60405180910390f35b610475600480360381019061047091906144e9565b612ad5565b005b610491600480360381019061048c9190613e2e565b6135cb565b6040516104a2959493929190614529565b60405180910390f35b6104c560048036038101906104c09190613e2e565b61383c565b6040516104d291906143e3565b60405180910390f35b6104e361396b565b6040516104f0919061457c565b60405180910390f35b6000600260008673ffffffffffffffffffffffffffffffffffffffff1673ffffffffffffffffffffffffffffffffffffffff16815260200190815260200160002090506001600081548092919061054f906145c6565b9190505550848160000160006101000a81548173ffffffffffffffffffffffffffffffffffffffff021916908373ffffffffffffffffffffffffffffffffffffffff160217905550818160010190805190602001906105af929190613971565b50828160020190805190602001906105c8929190613971565b50838160030190805190602001906105e1929190613971565b505050505050565b60046020528160005260406000206020528060005260406000206000915091505080600001549080600101805461061f9061463e565b80601f016020809104026020016040519081016040528092919081815260200182805461064b9061463e565b80156106985780601f1061066d57610100808354040283529160200191610698565b820191906000526020600020905b81548152906001019060200180831161067b57829003601f168201915b5050505050908060020180546106ad9061463e565b80601f01602080910402602001604051908101604052809291908181526020018280546106d99061463e565b80156107265780601f106106fb57610100808354040283529160200191610726565b820191906000526020600020905b81548152906001019060200180831161070957829003601f168201915b50505050509080600301805461073b9061463e565b80601f01602080910402602001604051908101604052809291908181526020018280546107679061463e565b80156107b45780601f10610789576101008083540402835291602001916107b4565b820191906000526020600020905b81548152906001019060200180831161079757829003601f168201915b5050505050905084565b60058480516020810182018051848252602083016020850120818352809550505050505083805160208101820180518482526020830160208501208183528095505050505050828051602081018201805184825260208301602085012081835280955050505050506020528060005260406000206000935093505050508060000160009054906101000a900473ffffffffffffffffffffffffffffffffffffffff16908060010160009054906101000a900473ffffffffffffffffffffffffffffffffffffffff16908060020154908060030154908060040154908060050160009054906101000a900460ff16908060060154908060070160009054906101000a900460ff169080600901549080600a015490508a565b60066020528060005260406000206000915090508060000160009054906101000a900473ffffffffffffffffffffffffffffffffffffffff169080600101805461091e9061463e565b80601f016020809104026020016040519081016040528092919081815260200182805461094a9061463e565b80156109975780601f1061096c57610100808354040283529160200191610997565b820191906000526020600020905b81548152906001019060200180831161097a57829003601f168201915b5050505050908060020180546109ac9061463e565b80601f01602080910402602001604051908101604052809291908181526020018280546109d89061463e565b8015610a255780601f106109fa57610100808354040283529160200191610a25565b820191906000526020600020905b815481529060010190602001808311610a0857829003601f168201915b505050505090806003018054610a3a9061463e565b80601f0160208091040260200160405190810160405280929190818152602001828054610a669061463e565b8015610ab35780601f10610a8857610100808354040283529160200191610ab3565b820191906000526020600020905b815481529060010190602001808311610a9657829003601f168201915b505050505090806004015490806005018054610ace9061463e565b80601f0160208091040260200160405190810160405280929190818152602001828054610afa9061463e565b8015610b475780601f10610b1c57610100808354040283529160200191610b47565b820191906000526020600020905b815481529060010190602001808311610b2a57829003601f168201915b5050505050908060060154908060070154905088565b60008054906101000a900473ffffffffffffffffffffffffffffffffffffffff1681565b3373ffffffffffffffffffffffffffffffffffffffff16600260003373ffffffffffffffffffffffffffffffffffffffff1673ffffffffffffffffffffffffffffffffffffffff16815260200190815260200160002060000160009054906101000a900473ffffffffffffffffffffffffffffffffffffffff1673ffffffffffffffffffffffffffffffffffffffff1614610c51576040517f08c379a0000000000000000000000000000000000000000000000000000000008152600401610c48906146bc565b60405180910390fd5b87604051602001610c629190614718565b60405160208183030381529060405280519060200120600260003373ffffffffffffffffffffffffffffffffffffffff1673ffffffffffffffffffffffffffffffffffffffff168152602001908152602001600020600301604051602001610cca91906147c3565b60405160208183030381529060405280519060200120148015610d79575086604051602001610cf99190614718565b60405160208183030381529060405280519060200120600260003373ffffffffffffffffffffffffffffffffffffffff1673ffffffffffffffffffffffffffffffffffffffff168152602001908152602001600020600201604051602001610d6191906147c3565b60405160208183030381529060405280519060200120145b8015610e11575085604051602001610d919190614718565b60405160208183030381529060405280519060200120600260003373ffffffffffffffffffffffffffffffffffffffff1673ffffffffffffffffffffffffffffffffffffffff168152602001908152602001600020600101604051602001610df991906147c3565b60405160208183030381529060405280519060200120145b610e50576040517f08c379a0000000000000000000000000000000000000000000000000000000008152600401610e479061484c565b60405180910390fd5b60001515600589604051610e649190614718565b908152602001604051809103902088604051610e809190614718565b908152602001604051809103902087604051610e9c9190614718565b9081526020016040518091039020600086815260200190815260200160002060050160009054906101000a900460ff16151514610f0e576040517f08c379a0000000000000000000000000000000000000000000000000000000008152600401610f05906148de565b60405180910390fd5b6000600589604051610f209190614718565b908152602001604051809103902088604051610f3c9190614718565b908152602001604051809103902087604051610f589190614718565b9081526020016040518091039020600086815260200190815260200160002090506000600360008673ffffffffffffffffffffffffffffffffffffffff1673ffffffffffffffffffffffffffffffffffffffff1681526020019081526020016000206000600660008873ffffffffffffffffffffffffffffffffffffffff1673ffffffffffffffffffffffffffffffffffffffff1681526020019081526020016000206006015481526020019081526020016000209050848260000160006101000a81548173ffffffffffffffffffffffffffffffffffffffff021916908373ffffffffffffffffffffffffffffffffffffffff160217905550338260010160006101000a81548173ffffffffffffffffffffffffffffffffffffffff021916908373ffffffffffffffffffffffffffffffffffffffff160217905550868260020181905550858260030181905550600660008673ffffffffffffffffffffffffffffffffffffffff1673ffffffffffffffffffffffffffffffffffffffff16815260200190815260200160002060060154826004018190555060018260050160006101000a81548160ff02191690831515021790555083826006018190555060008260070160006101000a81548160ff0219169083151502179055508282600a01819055508581600001819055508981600101908051906020019061115f929190613971565b5088816002019080519060200190611178929190613971565b5087816003019080519060200190611191929190613971565b50600660008673ffffffffffffffffffffffffffffffffffffffff1673ffffffffffffffffffffffffffffffffffffffff16815260200190815260200160002060060160008154809291906111e5906145c6565b919050555050505050505050505050565b6060806060600080600460003373ffffffffffffffffffffffffffffffffffffffff1673ffffffffffffffffffffffffffffffffffffffff16815260200190815260200160002060008781526020019081526020016000206000015490506000600460003373ffffffffffffffffffffffffffffffffffffffff1673ffffffffffffffffffffffffffffffffffffffff168152602001908152602001600020600088815260200190815260200160002060010180546112b49061463e565b80601f01602080910402602001604051908101604052809291908181526020018280546112e09061463e565b801561132d5780601f106113025761010080835404028352916020019161132d565b820191906000526020600020905b81548152906001019060200180831161131057829003601f168201915b505050505090506000600460003373ffffffffffffffffffffffffffffffffffffffff1673ffffffffffffffffffffffffffffffffffffffff168152602001908152602001600020600089815260200190815260200160002060020180546113949061463e565b80601f01602080910402602001604051908101604052809291908181526020018280546113c09061463e565b801561140d5780601f106113e25761010080835404028352916020019161140d565b820191906000526020600020905b8154815290600101906020018083116113f057829003601f168201915b505050505090506000600460003373ffffffffffffffffffffffffffffffffffffffff1673ffffffffffffffffffffffffffffffffffffffff16815260200190815260200160002060008a815260200190815260200160002060030180546114749061463e565b80601f01602080910402602001604051908101604052809291908181526020018280546114a09061463e565b80156114ed5780601f106114c2576101008083540402835291602001916114ed565b820191906000526020600020905b8154815290600101906020018083116114d057829003601f168201915b50505050509050828282869750975097509750505050509193509193565b60008060058760405161151e9190614718565b90815260200160405180910390208660405161153a9190614718565b9081526020016040518091039020856040516115569190614718565b90815260200160405180910390206000858152602001908152602001600020600801600084815260200190815260200160002060000160009054906101000a900473ffffffffffffffffffffffffffffffffffffffff1690508091505095945050505050565b60026020528060005260406000206000915090508060000160009054906101000a900473ffffffffffffffffffffffffffffffffffffffff16908060010180546116059061463e565b80601f01602080910402602001604051908101604052809291908181526020018280546116319061463e565b801561167e5780601f106116535761010080835404028352916020019161167e565b820191906000526020600020905b81548152906001019060200180831161166157829003601f168201915b5050505050908060020180546116939061463e565b80601f01602080910402602001604051908101604052809291908181526020018280546116bf9061463e565b801561170c5780601f106116e15761010080835404028352916020019161170c565b820191906000526020600020905b8154815290600101906020018083116116ef57829003601f168201915b5050505050908060030180546117219061463e565b80601f016020809104026020016040519081016040528092919081815260200182805461174d9061463e565b801561179a5780601f1061176f5761010080835404028352916020019161179a565b820191906000526020600020905b81548152906001019060200180831161177d57829003601f168201915b5050505050905084565b6000600360003373ffffffffffffffffffffffffffffffffffffffff1673ffffffffffffffffffffffffffffffffffffffff168152602001908152602001600020600083815260200190815260200160002060010180546118049061463e565b80601f01602080910402602001604051908101604052809291908181526020018280546118309061463e565b801561187d5780601f106118525761010080835404028352916020019161187d565b820191906000526020600020905b81548152906001019060200180831161186057829003601f168201915b505050505090506000600360003373ffffffffffffffffffffffffffffffffffffffff1673ffffffffffffffffffffffffffffffffffffffff168152602001908152602001600020600084815260200190815260200160002060020180546118e49061463e565b80601f01602080910402602001604051908101604052809291908181526020018280546119109061463e565b801561195d5780601f106119325761010080835404028352916020019161195d565b820191906000526020600020905b81548152906001019060200180831161194057829003601f168201915b505050505090506000600360003373ffffffffffffffffffffffffffffffffffffffff1673ffffffffffffffffffffffffffffffffffffffff168152602001908152602001600020600085815260200190815260200160002060030180546119c49061463e565b80601f01602080910402602001604051908101604052809291908181526020018280546119f09061463e565b8015611a3d5780601f10611a1257610100808354040283529160200191611a3d565b820191906000526020600020905b815481529060010190602001808311611a2057829003601f168201915b505050505090506000600360003373ffffffffffffffffffffffffffffffffffffffff1673ffffffffffffffffffffffffffffffffffffffff168152602001908152602001600020600086815260200190815260200160002060000154905060001515600585604051611ab09190614718565b908152602001604051809103902084604051611acc9190614718565b908152602001604051809103902083604051611ae89190614718565b9081526020016040518091039020600083815260200190815260200160002060070160009054906101000a900460ff16151514611b5a576040517f08c379a0000000000000000000000000000000000000000000000000000000008152600401611b5190614970565b60405180910390fd5b6001600585604051611b6c9190614718565b908152602001604051809103902084604051611b889190614718565b908152602001604051809103902083604051611ba49190614718565b9081526020016040518091039020600083815260200190815260200160002060070160006101000a81548160ff0219169083151502179055505050505050565b6000806000600660003373ffffffffffffffffffffffffffffffffffffffff1673ffffffffffffffffffffffffffffffffffffffff1681526020019081526020016000206006015490506000600660003373ffffffffffffffffffffffffffffffffffffffff1673ffffffffffffffffffffffffffffffffffffffff16815260200190815260200160002060070154905081819350935050509091565b6060806060600080600360003373ffffffffffffffffffffffffffffffffffffffff1673ffffffffffffffffffffffffffffffffffffffff16815260200190815260200160002060008781526020019081526020016000206000015490506000600360003373ffffffffffffffffffffffffffffffffffffffff1673ffffffffffffffffffffffffffffffffffffffff16815260200190815260200160002060008881526020019081526020016000206001018054611d3f9061463e565b80601f0160208091040260200160405190810160405280929190818152602001828054611d6b9061463e565b8015611db85780601f10611d8d57610100808354040283529160200191611db8565b820191906000526020600020905b815481529060010190602001808311611d9b57829003601f168201915b505050505090506000600360003373ffffffffffffffffffffffffffffffffffffffff1673ffffffffffffffffffffffffffffffffffffffff16815260200190815260200160002060008981526020019081526020016000206002018054611e1f9061463e565b80601f0160208091040260200160405190810160405280929190818152602001828054611e4b9061463e565b8015611e985780601f10611e6d57610100808354040283529160200191611e98565b820191906000526020600020905b815481529060010190602001808311611e7b57829003601f168201915b505050505090506000600360003373ffffffffffffffffffffffffffffffffffffffff1673ffffffffffffffffffffffffffffffffffffffff16815260200190815260200160002060008a81526020019081526020016000206003018054611eff9061463e565b80601f0160208091040260200160405190810160405280929190818152602001828054611f2b9061463e565b8015611f785780601f10611f4d57610100808354040283529160200191611f78565b820191906000526020600020905b815481529060010190602001808311611f5b57829003601f168201915b50505050509050828282869750975097509750505050509193509193565b6060806060600060606000600660003373ffffffffffffffffffffffffffffffffffffffff1673ffffffffffffffffffffffffffffffffffffffff1681526020019081526020016000206001018054611fee9061463e565b80601f016020809104026020016040519081016040528092919081815260200182805461201a9061463e565b80156120675780601f1061203c57610100808354040283529160200191612067565b820191906000526020600020905b81548152906001019060200180831161204a57829003601f168201915b505050505090506000600660003373ffffffffffffffffffffffffffffffffffffffff1673ffffffffffffffffffffffffffffffffffffffff16815260200190815260200160002060020180546120bd9061463e565b80601f01602080910402602001604051908101604052809291908181526020018280546120e99061463e565b80156121365780601f1061210b57610100808354040283529160200191612136565b820191906000526020600020905b81548152906001019060200180831161211957829003601f168201915b505050505090506000600660003373ffffffffffffffffffffffffffffffffffffffff1673ffffffffffffffffffffffffffffffffffffffff168152602001908152602001600020600301805461218c9061463e565b80601f01602080910402602001604051908101604052809291908181526020018280546121b89061463e565b80156122055780601f106121da57610100808354040283529160200191612205565b820191906000526020600020905b8154815290600101906020018083116121e857829003601f168201915b505050505090506000600660003373ffffffffffffffffffffffffffffffffffffffff1673ffffffffffffffffffffffffffffffffffffffff1681526020019081526020016000206004015490506000600660003373ffffffffffffffffffffffffffffffffffffffff1673ffffffffffffffffffffffffffffffffffffffff16815260200190815260200160002060050180546122a29061463e565b80601f01602080910402602001604051908101604052809291908181526020018280546122ce9061463e565b801561231b5780601f106122f05761010080835404028352916020019161231b565b820191906000526020600020905b8154815290600101906020018083116122fe57829003601f168201915b5050505050905084848484849950995099509950995050505050509091929394565b600060058560405161234f9190614718565b90815260200160405180910390208460405161236b9190614718565b9081526020016040518091039020836040516123879190614718565b908152602001604051809103902060008381526020019081526020016000209050600115158160070160009054906101000a900460ff16151514612400576040517f08c379a00000000000000000000000000000000000000000000000000000000081526004016123f790614a02565b60405180910390fd5b6000816009015490503382600801600083815260200190815260200160002060000160006101000a81548173ffffffffffffffffffffffffffffffffffffffff021916908373ffffffffffffffffffffffffffffffffffffffff160217905550600660003373ffffffffffffffffffffffffffffffffffffffff1673ffffffffffffffffffffffffffffffffffffffff16815260200190815260200160002060070154826008016000838152602001908152602001600020600101819055508160090160008154809291906124d4906145c6565b91905055506000600460003373ffffffffffffffffffffffffffffffffffffffff1673ffffffffffffffffffffffffffffffffffffffff1681526020019081526020016000206000600660003373ffffffffffffffffffffffffffffffffffffffff1673ffffffffffffffffffffffffffffffffffffffff168152602001908152602001600020600701548152602001908152602001600020905083816000018190555086816001019080519060200190612590929190613971565b50858160020190805190602001906125a9929190613971565b50848160030190805190602001906125c2929190613971565b50600660003373ffffffffffffffffffffffffffffffffffffffff1673ffffffffffffffffffffffffffffffffffffffff1681526020019081526020016000206007016000815480929190612616906145c6565b919050555050505050505050565b6000806005866040516126379190614718565b9081526020016040518091039020856040516126539190614718565b90815260200160405180910390208460405161266f9190614718565b9081526020016040518091039020600084815260200190815260200160002060070160009054906101000a900460ff16905080915050949350505050565b60003373ffffffffffffffffffffffffffffffffffffffff16600260003373ffffffffffffffffffffffffffffffffffffffff1673ffffffffffffffffffffffffffffffffffffffff16815260200190815260200160002060000160009054906101000a900473ffffffffffffffffffffffffffffffffffffffff1673ffffffffffffffffffffffffffffffffffffffff16141561274e5760019050612753565b600090505b90565b6000600660003373ffffffffffffffffffffffffffffffffffffffff1673ffffffffffffffffffffffffffffffffffffffff1681526020019081526020016000209050858160010190805190602001906127b1929190613971565b50848160020190805190602001906127ca929190613971565b50838160030190805190602001906127e3929190613971565b5082816004018190555081816005019080519060200190612805929190613971565b50505050505050565b60008060006005876040516128239190614718565b90815260200160405180910390208660405161283f9190614718565b90815260200160405180910390208560405161285b9190614718565b9081526020016040518091039020600085815260200190815260200160002060090154905060006005886040516128929190614718565b9081526020016040518091039020876040516128ae9190614718565b9081526020016040518091039020866040516128ca9190614718565b90815260200160405180910390206000868152602001908152602001600020600201549050818193509350505094509492505050565b6003602052816000526040600020602052806000526040600020600091509150508060000154908060010180546129369061463e565b80601f01602080910402602001604051908101604052809291908181526020018280546129629061463e565b80156129af5780601f10612984576101008083540402835291602001916129af565b820191906000526020600020905b81548152906001019060200180831161299257829003601f168201915b5050505050908060020180546129c49061463e565b80601f01602080910402602001604051908101604052809291908181526020018280546129f09061463e565b8015612a3d5780601f10612a1257610100808354040283529160200191612a3d565b820191906000526020600020905b815481529060010190602001808311612a2057829003601f168201915b505050505090806003018054612a529061463e565b80601f0160208091040260200160405190810160405280929190818152602001828054612a7e9061463e565b8015612acb5780601f10612aa057610100808354040283529160200191612acb565b820191906000526020600020905b815481529060010190602001808311612aae57829003601f168201915b5050505050905084565b6000600360003373ffffffffffffffffffffffffffffffffffffffff1673ffffffffffffffffffffffffffffffffffffffff16815260200190815260200160002060008481526020019081526020016000206000015490506000600360003373ffffffffffffffffffffffffffffffffffffffff1673ffffffffffffffffffffffffffffffffffffffff16815260200190815260200160002060008581526020019081526020016000206001018054612b8d9061463e565b80601f0160208091040260200160405190810160405280929190818152602001828054612bb99061463e565b8015612c065780601f10612bdb57610100808354040283529160200191612c06565b820191906000526020600020905b815481529060010190602001808311612be957829003601f168201915b505050505090506000600360003373ffffffffffffffffffffffffffffffffffffffff1673ffffffffffffffffffffffffffffffffffffffff16815260200190815260200160002060008681526020019081526020016000206002018054612c6d9061463e565b80601f0160208091040260200160405190810160405280929190818152602001828054612c999061463e565b8015612ce65780601f10612cbb57610100808354040283529160200191612ce6565b820191906000526020600020905b815481529060010190602001808311612cc957829003601f168201915b505050505090506000600360003373ffffffffffffffffffffffffffffffffffffffff1673ffffffffffffffffffffffffffffffffffffffff16815260200190815260200160002060008781526020019081526020016000206003018054612d4d9061463e565b80601f0160208091040260200160405190810160405280929190818152602001828054612d799061463e565b8015612dc65780601f10612d9b57610100808354040283529160200191612dc6565b820191906000526020600020905b815481529060010190602001808311612da957829003601f168201915b505050505090506000600584604051612ddf9190614718565b908152602001604051809103902083604051612dfb9190614718565b908152602001604051809103902082604051612e179190614718565b90815260200160405180910390206000868152602001908152602001600020600801600087815260200190815260200160002060000160009054906101000a900473ffffffffffffffffffffffffffffffffffffffff1690506000600585604051612e829190614718565b908152602001604051809103902084604051612e9e9190614718565b908152602001604051809103902083604051612eba9190614718565b9081526020016040518091039020600087815260200190815260200160002060080160008881526020019081526020016000206001015490506000600586604051612f059190614718565b908152602001604051809103902085604051612f219190614718565b908152602001604051809103902084604051612f3d9190614718565b9081526020016040518091039020600088815260200190815260200160002060090154905060005b818110156131e0576000600588604051612f7f9190614718565b908152602001604051809103902087604051612f9b9190614718565b908152602001604051809103902086604051612fb79190614718565b908152602001604051809103902060008a8152602001908152602001600020600801600083815260200190815260200160002060000160009054906101000a900473ffffffffffffffffffffffffffffffffffffffff16905060006005896040516130229190614718565b90815260200160405180910390208860405161303e9190614718565b90815260200160405180910390208760405161305a9190614718565b908152602001604051809103902060008b81526020019081526020016000206008016000848152602001908152602001600020600101549050600460008373ffffffffffffffffffffffffffffffffffffffff1673ffffffffffffffffffffffffffffffffffffffff16815260200190815260200160002060008281526020019081526020016000206000808201600090556001820160006130fc91906139f7565b60028201600061310c91906139f7565b60038201600061311c91906139f7565b505060058960405161312e9190614718565b90815260200160405180910390208860405161314a9190614718565b9081526020016040518091039020876040516131669190614718565b908152602001604051809103902060008b81526020019081526020016000206008016000848152602001908152602001600020600080820160006101000a81549073ffffffffffffffffffffffffffffffffffffffff021916905560018201600090555050505080806131d8906145c6565b915050612f65565b50826005876040516131f29190614718565b90815260200160405180910390208660405161320e9190614718565b90815260200160405180910390208560405161322a9190614718565b9081526020016040518091039020600089815260200190815260200160002060000160006101000a81548173ffffffffffffffffffffffffffffffffffffffff021916908373ffffffffffffffffffffffffffffffffffffffff160217905550600060058760405161329c9190614718565b9081526020016040518091039020866040516132b89190614718565b9081526020016040518091039020856040516132d49190614718565b9081526020016040518091039020600089815260200190815260200160002060070160006101000a81548160ff021916908315150217905550600060058760405161331f9190614718565b90815260200160405180910390208660405161333b9190614718565b9081526020016040518091039020856040516133579190614718565b9081526020016040518091039020600089815260200190815260200160002060090181905550600360003373ffffffffffffffffffffffffffffffffffffffff1673ffffffffffffffffffffffffffffffffffffffff16815260200190815260200160002060008a81526020019081526020016000206000808201600090556001820160006133e691906139f7565b6002820160006133f691906139f7565b60038201600061340691906139f7565b50506000600660008573ffffffffffffffffffffffffffffffffffffffff1673ffffffffffffffffffffffffffffffffffffffff1681526020019081526020016000206006015490506000600360008673ffffffffffffffffffffffffffffffffffffffff1673ffffffffffffffffffffffffffffffffffffffff16815260200190815260200160002060008381526020019081526020016000209050888160000181905550878160010190805190602001906134c4929190613971565b50868160020190805190602001906134dd929190613971565b50858160030190805190602001906134f6929190613971565b50816005896040516135089190614718565b9081526020016040518091039020886040516135249190614718565b9081526020016040518091039020876040516135409190614718565b908152602001604051809103902060008b815260200190815260200160002060040181905550600660008673ffffffffffffffffffffffffffffffffffffffff1673ffffffffffffffffffffffffffffffffffffffff16815260200190815260200160002060060160008154809291906135b9906145c6565b91905055505050505050505050505050565b60008060008060008060058a6040516135e49190614718565b9081526020016040518091039020896040516136009190614718565b90815260200160405180910390208860405161361c9190614718565b9081526020016040518091039020600088815260200190815260200160002060000160009054906101000a900473ffffffffffffffffffffffffffffffffffffffff169050600060058b6040516136739190614718565b90815260200160405180910390208a60405161368f9190614718565b9081526020016040518091039020896040516136ab9190614718565b90815260200160405180910390206000898152602001908152602001600020600201549050600060058c6040516136e29190614718565b90815260200160405180910390208b6040516136fe9190614718565b90815260200160405180910390208a60405161371a9190614718565b908152602001604051809103902060008a8152602001908152602001600020600401549050600060058d6040516137519190614718565b90815260200160405180910390208c60405161376d9190614718565b90815260200160405180910390208b6040516137899190614718565b908152602001604051809103902060008b8152602001908152602001600020600601549050600060058e6040516137c09190614718565b90815260200160405180910390208d6040516137dc9190614718565b90815260200160405180910390208c6040516137f89190614718565b908152602001604051809103902060008c8152602001908152602001600020600a015490508484848484995099509950995099505050505050945094509450945094565b60008060058660405161384f9190614718565b90815260200160405180910390208560405161386b9190614718565b9081526020016040518091039020846040516138879190614718565b90815260200160405180910390206000848152602001908152602001600020905060008160090154905060008114156138c557600092505050613963565b60005b8181101561395b573373ffffffffffffffffffffffffffffffffffffffff1683600801600083815260200190815260200160002060000160009054906101000a900473ffffffffffffffffffffffffffffffffffffffff1673ffffffffffffffffffffffffffffffffffffffff1614156139485760019350505050613963565b8080613953906145c6565b9150506138c8565b506000925050505b949350505050565b60015481565b82805461397d9061463e565b90600052602060002090601f01602090048101928261399f57600085556139e6565b82601f106139b857805160ff19168380011785556139e6565b828001600101855582156139e6579182015b828111156139e55782518255916020019190600101906139ca565b5b5090506139f39190613a37565b5090565b508054613a039061463e565b6000825580601f10613a155750613a34565b601f016020900490600052602060002090810190613a339190613a37565b5b50565b5b80821115613a50576000816000905550600101613a38565b5090565b6000604051905090565b600080fd5b600080fd5b600073ffffffffffffffffffffffffffffffffffffffff82169050919050565b6000613a9382613a68565b9050919050565b613aa381613a88565b8114613aae57600080fd5b50565b600081359050613ac081613a9a565b92915050565b600080fd5b600080fd5b6000601f19601f8301169050919050565b7f4e487b7100000000000000000000000000000000000000000000000000000000600052604160045260246000fd5b613b1982613ad0565b810181811067ffffffffffffffff82111715613b3857613b37613ae1565b5b80604052505050565b6000613b4b613a54565b9050613b578282613b10565b919050565b600067ffffffffffffffff821115613b7757613b76613ae1565b5b613b8082613ad0565b9050602081019050919050565b82818337600083830152505050565b6000613baf613baa84613b5c565b613b41565b905082815260208101848484011115613bcb57613bca613acb565b5b613bd6848285613b8d565b509392505050565b600082601f830112613bf357613bf2613ac6565b5b8135613c03848260208601613b9c565b91505092915050565b60008060008060808587031215613c2657613c25613a5e565b5b6000613c3487828801613ab1565b945050602085013567ffffffffffffffff811115613c5557613c54613a63565b5b613c6187828801613bde565b935050604085013567ffffffffffffffff811115613c8257613c81613a63565b5b613c8e87828801613bde565b925050606085013567ffffffffffffffff811115613caf57613cae613a63565b5b613cbb87828801613bde565b91505092959194509250565b6000819050919050565b613cda81613cc7565b8114613ce557600080fd5b50565b600081359050613cf781613cd1565b92915050565b60008060408385031215613d1457613d13613a5e565b5b6000613d2285828601613ab1565b9250506020613d3385828601613ce8565b9150509250929050565b613d4681613cc7565b82525050565b600081519050919050565b600082825260208201905092915050565b60005b83811015613d86578082015181840152602081019050613d6b565b83811115613d95576000848401525b50505050565b6000613da682613d4c565b613db08185613d57565b9350613dc0818560208601613d68565b613dc981613ad0565b840191505092915050565b6000608082019050613de96000830187613d3d565b8181036020830152613dfb8186613d9b565b90508181036040830152613e0f8185613d9b565b90508181036060830152613e238184613d9b565b905095945050505050565b60008060008060808587031215613e4857613e47613a5e565b5b600085013567ffffffffffffffff811115613e6657613e65613a63565b5b613e7287828801613bde565b945050602085013567ffffffffffffffff811115613e9357613e92613a63565b5b613e9f87828801613bde565b935050604085013567ffffffffffffffff811115613ec057613ebf613a63565b5b613ecc87828801613bde565b9250506060613edd87828801613ce8565b91505092959194509250565b613ef281613a88565b82525050565b60008115159050919050565b613f0d81613ef8565b82525050565b600061014082019050613f29600083018d613ee9565b613f36602083018c613ee9565b613f43604083018b613d3d565b613f50606083018a613d3d565b613f5d6080830189613d3d565b613f6a60a0830188613f04565b613f7760c0830187613d3d565b613f8460e0830186613f04565b613f92610100830185613d3d565b613fa0610120830184613d3d565b9b9a5050505050505050505050565b600060208284031215613fc557613fc4613a5e565b5b6000613fd384828501613ab1565b91505092915050565b600061010082019050613ff2600083018b613ee9565b8181036020830152614004818a613d9b565b905081810360408301526140188189613d9b565b9050818103606083015261402c8188613d9b565b905061403b6080830187613d3d565b81810360a083015261404d8186613d9b565b905061405c60c0830185613d3d565b61406960e0830184613d3d565b9998505050505050505050565b600060208201905061408b6000830184613ee9565b92915050565b600080600080600080600080610100898b0312156140b2576140b1613a5e565b5b600089013567ffffffffffffffff8111156140d0576140cf613a63565b5b6140dc8b828c01613bde565b985050602089013567ffffffffffffffff8111156140fd576140fc613a63565b5b6141098b828c01613bde565b975050604089013567ffffffffffffffff81111561412a57614129613a63565b5b6141368b828c01613bde565b96505060606141478b828c01613ce8565b95505060806141588b828c01613ce8565b94505060a06141698b828c01613ab1565b93505060c061417a8b828c01613ce8565b92505060e061418b8b828c01613ce8565b9150509295985092959890939650565b6000602082840312156141b1576141b0613a5e565b5b60006141bf84828501613ce8565b91505092915050565b600060808201905081810360008301526141e28187613d9b565b905081810360208301526141f68186613d9b565b9050818103604083015261420a8185613d9b565b90506142196060830184613d3d565b95945050505050565b600080600080600060a0868803121561423e5761423d613a5e565b5b600086013567ffffffffffffffff81111561425c5761425b613a63565b5b61426888828901613bde565b955050602086013567ffffffffffffffff81111561428957614288613a63565b5b61429588828901613bde565b945050604086013567ffffffffffffffff8111156142b6576142b5613a63565b5b6142c288828901613bde565b93505060606142d388828901613ce8565b92505060806142e488828901613ce8565b9150509295509295909350565b60006080820190506143066000830187613ee9565b81810360208301526143188186613d9b565b9050818103604083015261432c8185613d9b565b905081810360608301526143408184613d9b565b905095945050505050565b60006040820190506143606000830185613d3d565b61436d6020830184613d3d565b9392505050565b600060a082019050818103600083015261438e8188613d9b565b905081810360208301526143a28187613d9b565b905081810360408301526143b68186613d9b565b90506143c56060830185613d3d565b81810360808301526143d78184613d9b565b90509695505050505050565b60006020820190506143f86000830184613f04565b92915050565b600080600080600060a0868803121561441a57614419613a5e565b5b600086013567ffffffffffffffff81111561443857614437613a63565b5b61444488828901613bde565b955050602086013567ffffffffffffffff81111561446557614464613a63565b5b61447188828901613bde565b945050604086013567ffffffffffffffff81111561449257614491613a63565b5b61449e88828901613bde565b93505060606144af88828901613ce8565b925050608086013567ffffffffffffffff8111156144d0576144cf613a63565b5b6144dc88828901613bde565b9150509295509295909350565b60008060408385031215614500576144ff613a5e565b5b600061450e85828601613ce8565b925050602061451f85828601613ce8565b9150509250929050565b600060a08201905061453e6000830188613ee9565b61454b6020830187613d3d565b6145586040830186613d3d565b6145656060830185613d3d565b6145726080830184613d3d565b9695505050505050565b60006020820190506145916000830184613d3d565b92915050565b7f4e487b7100000000000000000000000000000000000000000000000000000000600052601160045260246000fd5b60006145d182613cc7565b91507fffffffffffffffffffffffffffffffffffffffffffffffffffffffffffffffff82141561460457614603614597565b5b600182019050919050565b7f4e487b7100000000000000000000000000000000000000000000000000000000600052602260045260246000fd5b6000600282049050600182168061465657607f821691505b6020821081141561466a5761466961460f565b5b50919050565b7f4f6e6c792061646d696e2063616e205265676973746572206c616e6400000000600082015250565b60006146a6601c83613d57565b91506146b182614670565b602082019050919050565b600060208201905081810360008301526146d581614699565b9050919050565b600081905092915050565b60006146f282613d4c565b6146fc81856146dc565b935061470c818560208601613d68565b80840191505092915050565b600061472482846146e7565b915081905092915050565b60008190508160005260206000209050919050565b600081546147518161463e565b61475b81866146dc565b945060018216600081146147765760018114614787576147ba565b60ff198316865281860193506147ba565b6147908561472f565b60005b838110156147b257815481890152600182019150602081019050614793565b838801955050505b50505092915050565b60006147cf8284614744565b915081905092915050565b7f41646d696e2063616e206f6e6c79207265676973746572206c616e64206f662060008201527f73616d6520636974792e00000000000000000000000000000000000000000000602082015250565b6000614836602a83613d57565b9150614841826147da565b604082019050919050565b6000602082019050818103600083015261486581614829565b9050919050565b7f537572766579204e756d62657220616c7265616479207265676973746572656460008201527f2100000000000000000000000000000000000000000000000000000000000000602082015250565b60006148c8602183613d57565b91506148d38261486c565b604082019050919050565b600060208201905081810360008301526148f7816148bb565b9050919050565b7f50726f706572747920616c7265616479206d61726b656420617661696c61626c60008201527f6500000000000000000000000000000000000000000000000000000000000000602082015250565b600061495a602183613d57565b9150614965826148fe565b604082019050919050565b600060208201905081810360008301526149898161494d565b9050919050565b7f546869732070726f7065727479206973204e4f54206d61726b656420666f722060008201527f73616c6521000000000000000000000000000000000000000000000000000000602082015250565b60006149ec602583613d57565b91506149f782614990565b604082019050919050565b60006020820190508181036000830152614a1b816149df565b905091905056fea26469706673582212205969a819d21bec876630e2618a1259b681059221b6fea0e0db6429fb8a56a57664736f6c63430008090033",
  "immutableReferences": {},
  "source": "// SPDX-License-Identifier: MIT\npragma solidity >= 0.5.0 < 0.9.0;\n\ncontract Registry{\n\n    address public superAdmin;\n    uint public totalAdmins;\n    \n    struct Admin{\n        address adminAddress;\n        string city;\n        string district;\n        string state;\n        \n    }\n\n    struct LandDetails{\n        address owner;\n        address admin;\n        uint256 propertyId;\n        uint surveyNumber;\n        uint index;\n        bool registered;\n        uint marketValue;\n        bool markAvailable;\n        mapping(uint => RequestDetails) requests; // reqNo => RequestDetails\n        uint noOfRequests;  // other users requested to this land\n        uint sqft;\n    }\n\n    struct UserProfile{\n        address userAddr;\n        string fullName;\n        string gender;\n        string email;\n        uint256 contact;\n        string residentialAddr;\n        uint totalIndices;\n        uint requestIndices;  // this user requested to other lands\n    }\n\n    struct OwnerOwns{\n        uint surveyNumber;\n        string state;\n        string district;\n        string city;\n    }\n    \n    struct RequestedLands{\n        uint surveyNumber;\n        string state;\n        string district;\n        string city;\n    }\n\n    struct RequestDetails{\n        address whoRequested;\n        uint reqIndex;\n    }\n\n    mapping(address => Admin) public admins;\n    mapping(address => mapping(uint => OwnerOwns)) public ownerMapsProperty;  // ownerAddr => index no. => OwnerOwns \n    mapping(address => mapping(uint => RequestedLands)) public requestedLands;  // ownerAddr => reqIndex => RequestedLands\n    mapping(string => mapping(string => mapping(string => mapping(uint => LandDetails)))) public landDetalsMap; // state => district => city => surveyNo => LandDetails\n    mapping(address => UserProfile) public userProfile;\n    \n\n    constructor(){\n        superAdmin = msg.sender;\n    }\n\n    modifier onlyAdmin(){\n        require(admins[msg.sender].adminAddress == msg.sender, \"Only admin can Register land\");\n        _;\n    }\n\n\n    // SuperAdmin: Registers new admin\n    function addAdmin(address _adminAddr, string memory _state, string memory _district, string memory _city) external{\n        Admin storage newAdmin = admins[_adminAddr];\n        totalAdmins++;\n\n        newAdmin.adminAddress = _adminAddr;\n        newAdmin.city = _city;\n        newAdmin.district = _district;\n        newAdmin.state = _state;\n    }\n\n\n    // check if it is admin\n    function isAdmin() external view returns(bool){\n        if(admins[msg.sender].adminAddress == msg.sender){\n            return true;\n        }\n        else return false;\n    }\n\n\n    // Admin: registers land\n    function registerLand(string memory _state, string memory _district, string memory _city, uint256 _propertyId, uint _surveyNo, address _owner, uint _marketValue, uint _sqft) external onlyAdmin{\n        \n        require(keccak256(abi.encodePacked(admins[msg.sender].state)) == keccak256(abi.encodePacked(_state))  \n        && keccak256(abi.encodePacked(admins[msg.sender].district)) == keccak256(abi.encodePacked(_district))\n        && keccak256(abi.encodePacked(admins[msg.sender].city)) == keccak256(abi.encodePacked(_city)), \"Admin can only register land of same city.\");\n\n        require(landDetalsMap[_state][_district][_city][_surveyNo].registered == false, \"Survey Number already registered!\");\n\n        LandDetails storage newLandRegistry = landDetalsMap[_state][_district][_city][_surveyNo];\n        OwnerOwns storage newOwnerOwns = ownerMapsProperty[_owner][userProfile[_owner].totalIndices];\n        \n\n        newLandRegistry.owner = _owner;\n        newLandRegistry.admin = msg.sender;\n        newLandRegistry.propertyId = _propertyId;\n        newLandRegistry.surveyNumber = _surveyNo;\n        newLandRegistry.index = userProfile[_owner].totalIndices;\n        newLandRegistry.registered = true;\n        newLandRegistry.marketValue = _marketValue;\n        newLandRegistry.markAvailable = false;\n        newLandRegistry.sqft = _sqft;\n\n        newOwnerOwns.surveyNumber = _surveyNo;\n        newOwnerOwns.state = _state;\n        newOwnerOwns.district = _district;\n        newOwnerOwns.city = _city;\n\n        userProfile[_owner].totalIndices++;\n    }\n\n\n    // User_1: set user profile\n    function setUserProfile(string memory _fullName, string memory _gender, string memory _email, uint256 _contact, string memory _residentialAddr) external{\n        \n        UserProfile storage newUserProfile = userProfile[msg.sender];\n\n        newUserProfile.fullName = _fullName;\n        newUserProfile.gender = _gender;\n        newUserProfile.email = _email;\n        newUserProfile.contact = _contact;\n        newUserProfile.residentialAddr = _residentialAddr;\n    }\n\n\n    // User_1: mark property available\n    function markMyPropertyAvailable(uint indexNo) external {\n        \n        string memory state = ownerMapsProperty[msg.sender][indexNo].state;\n        string memory district = ownerMapsProperty[msg.sender][indexNo].district;\n        string memory city = ownerMapsProperty[msg.sender][indexNo].city;\n        uint surveyNumber = ownerMapsProperty[msg.sender][indexNo].surveyNumber;\n\n        require(landDetalsMap[state][district][city][surveyNumber].markAvailable == false, \"Property already marked available\");\n\n        landDetalsMap[state][district][city][surveyNumber].markAvailable = true;\n    \n    }\n\n\n    // User_2: Request for buy  **ownerAddress & index = arguements** \n    function RequestForBuy(string memory _state, string memory _district, string memory _city, uint _surveyNo) external{\n\n        LandDetails storage thisLandDetail = landDetalsMap[_state][_district][_city][_surveyNo];\n        require(thisLandDetail.markAvailable == true, \"This property is NOT marked for sale!\");\n\n        uint req_serialNum = thisLandDetail.noOfRequests; \n        thisLandDetail.requests[req_serialNum].whoRequested = msg.sender;\n        thisLandDetail.requests[req_serialNum].reqIndex = userProfile[msg.sender].requestIndices;\n        thisLandDetail.noOfRequests++;\n\n        // adding requested land to user_2 profile\n        RequestedLands storage newReqestedLands = requestedLands[msg.sender][userProfile[msg.sender].requestIndices];\n        newReqestedLands.surveyNumber = _surveyNo;\n        newReqestedLands.state = _state;\n        newReqestedLands.district = _district;\n        newReqestedLands.city = _city;\n\n        userProfile[msg.sender].requestIndices++;\n\n    }\n\n\n    // User_1: Accept the buy request; sell.\n    function AcceptRequest(uint _index, uint _reqNo) external{\n\n        uint _surveyNo = ownerMapsProperty[msg.sender][_index].surveyNumber;\n        string memory _state = ownerMapsProperty[msg.sender][_index].state; \n        string memory _district = ownerMapsProperty[msg.sender][_index].district;\n        string memory _city = ownerMapsProperty[msg.sender][_index].city;\n        \n        // updating LandDetails\n        address newOwner = landDetalsMap[_state][_district][_city][_surveyNo].requests[_reqNo].whoRequested;\n        uint newOwner_reqIndex = landDetalsMap[_state][_district][_city][_surveyNo].requests[_reqNo].reqIndex;\n        uint noOfReq = landDetalsMap[_state][_district][_city][_surveyNo].noOfRequests;\n\n        // deleting requested land from all requesters AND removing all incoming requests\n        for(uint i=0; i<noOfReq; i++){\n            address requesterAddr = landDetalsMap[_state][_district][_city][_surveyNo].requests[i].whoRequested;\n            uint requester_reqIndx = landDetalsMap[_state][_district][_city][_surveyNo].requests[i].reqIndex;\n            \n            delete requestedLands[requesterAddr][requester_reqIndx];\n            delete landDetalsMap[_state][_district][_city][_surveyNo].requests[i];\n        }\n\n        landDetalsMap[_state][_district][_city][_surveyNo].owner = newOwner;\n        landDetalsMap[_state][_district][_city][_surveyNo].markAvailable = false;\n        landDetalsMap[_state][_district][_city][_surveyNo].noOfRequests = 0;\n\n        // deleting property from user_1's ownerMapsProperty \n        delete ownerMapsProperty[msg.sender][_index];\n\n        // adding ownerMapsProperty for newOwner\n        uint newOwnerTotProp = userProfile[newOwner].totalIndices;\n        OwnerOwns storage newOwnerOwns = ownerMapsProperty[newOwner][newOwnerTotProp];\n       \n        newOwnerOwns.surveyNumber = _surveyNo;\n        newOwnerOwns.state = _state;\n        newOwnerOwns.district = _district;\n        newOwnerOwns.city = _city;\n\n        landDetalsMap[_state][_district][_city][_surveyNo].index = newOwnerTotProp;\n\n        userProfile[newOwner].totalIndices++;\n\n    }\n\n\n    \n    //******* GETTERS **********\n\n    // return land details \n    function getLandDetails(string memory _state, string memory _district, string memory _city, uint _surveyNo) external view returns(address, uint256, uint, uint, uint){\n        \n        address owner = landDetalsMap[_state][_district][_city][_surveyNo].owner;\n        uint256 propertyid = landDetalsMap[_state][_district][_city][_surveyNo].propertyId;\n        uint indx = landDetalsMap[_state][_district][_city][_surveyNo].index;\n        uint mv = landDetalsMap[_state][_district][_city][_surveyNo].marketValue;\n        uint sqft = landDetalsMap[_state][_district][_city][_surveyNo].sqft;\n\n        return(owner, propertyid, indx, mv, sqft);\n    }\n\n    function getRequestCnt_propId(string memory _state, string memory _district, string memory _city, uint _surveyNo) external view returns(uint, uint256){\n        uint _noOfRequests = landDetalsMap[_state][_district][_city][_surveyNo].noOfRequests;\n        uint256 _propertyId = landDetalsMap[_state][_district][_city][_surveyNo].propertyId;\n        return(_noOfRequests, _propertyId);\n    }\n\n    function getRequesterDetail(string memory _state, string memory _district, string memory _city, uint _surveyNo, uint _reqIndex) external view returns(address){\n        address requester = landDetalsMap[_state][_district][_city][_surveyNo].requests[_reqIndex].whoRequested;\n        return(requester);\n    }\n\n    function isAvailable(string memory _state, string memory _district, string memory _city, uint _surveyNo) external view returns(bool){\n        bool available = landDetalsMap[_state][_district][_city][_surveyNo].markAvailable;\n        return(available);\n    }\n\n    function getOwnerOwns(uint indx) external view returns(string memory, string memory, string memory, uint){\n        \n        uint surveyNo = ownerMapsProperty[msg.sender][indx].surveyNumber;\n        string memory state = ownerMapsProperty[msg.sender][indx].state;\n        string memory district = ownerMapsProperty[msg.sender][indx].district;\n        string memory city = ownerMapsProperty[msg.sender][indx].city;\n\n        return(state, district, city, surveyNo);\n    }\n\n    function getRequestedLands(uint indx) external view returns(string memory, string memory, string memory, uint){\n        \n        uint surveyNo = requestedLands[msg.sender][indx].surveyNumber;\n        string memory state = requestedLands[msg.sender][indx].state;\n        string memory district = requestedLands[msg.sender][indx].district;\n        string memory city = requestedLands[msg.sender][indx].city;\n\n        return(state, district, city, surveyNo);\n    }\n\n    function getUserProfile() external view returns(string memory, string memory, string memory, uint256, string memory){\n        \n        string memory fullName = userProfile[msg.sender].fullName;\n        string memory gender = userProfile[msg.sender].gender;\n        string memory email = userProfile[msg.sender].email;\n        uint256 contact = userProfile[msg.sender].contact;\n        string memory residentialAddr = userProfile[msg.sender].residentialAddr;\n\n        return(fullName, gender, email, contact, residentialAddr);\n    }\n\n    function getIndices() external view returns(uint, uint){\n\n        uint _totalIndices = userProfile[msg.sender].totalIndices;\n        uint _reqIndices = userProfile[msg.sender].requestIndices;\n\n        return(_totalIndices, _reqIndices);\n    }\n\n\n    function didIRequested(string memory _state, string memory _district, string memory _city, uint _surveyNo) external view returns(bool){\n        \n        LandDetails storage thisLandDetail = landDetalsMap[_state][_district][_city][_surveyNo];\n        uint _noOfRequests = thisLandDetail.noOfRequests;\n\n        if(_noOfRequests == 0) \n            return (false);\n\n        for(uint i=0; i<_noOfRequests; i++){\n            if(thisLandDetail.requests[i].whoRequested == msg.sender){\n                return (true);\n            }\n        } \n\n        return(false);\n    } \n\n}",
  "sourcePath": "/home/akshay/Music/land-registry-master/contracts/Registry.sol",
  "compiler": {
    "name": "solc",
    "version": "0.8.9+commit.e5eed63a.Emscripten.clang"
  },
  "schemaVersion": "3.4.16",
  "updatedAt": "2024-05-02T02:25:39.100Z",
  "networkType": "ethereum",
  "devdoc": {
    "kind": "dev",
    "methods": {},
    "version": 1
  },
  "userdoc": {
    "kind": "user",
    "methods": {},
    "version": 1
  }
}